S0120000526F626F74657261726D2E73726563F5
S11300000C9434000C9446000C9446000C94460066
S11300100C9446000C9446000C9446000C94460044
S11300200C9446000C9446000C9446000C94480032
S11300300C9446000C9446000C9446000C94460024
S11300400C9446000C9446000C9459010C948701BE
S11300500C9446000C9446000C9446000C94460004
S11300600C9446000C94460011241FBECFEFD8E038
S1130070DEBFCDBF21E0A0E0B1E001C01D92AF34EE
S1130080B207E1F70E94B6000C94EA010C94000058
S11300901F920F920FB60F9211242F933F938F93B9
S11300A09F93809108019091090101969093090111
S11300B0809308018091080190910901803D974047
S11300C0C0F0109209011092080185B18F6085B9C2
S11300D080910701809303018091060180930201BE
S11300E080910501809301018091040180930001B6
S11300F034C08091030190E02091080130910901FE
S11301008217930719F485B18E7F85B98091020116
S113011090E020910801309109018217930719F4A6
S113012085B18D7F85B98091010190E0209108010E
S1130130309109018217930719F485B18B7F85B932
S11301408091000190E0209108013091090182170B
S1130150930719F485B1877F85B99F918F913F915A
S11301602F910F900FBE0F901F901895CF93DF9390
S1130170CDB7DEB72A970FB6F894DEBF0FBECDBF5A
S113018087E690E00E94B101E1E8F0E080818960B7
S113019080838FE990E09093890080938800EFE654
S11301A0F0E08081826080838FE084B98AE7809365
S11301B0070184E98093060181ED8093050185E6BA
S11301C080930401789410E00E94CC018F3F910544
S11301D009F0D0F78335C1F78FE39FE10197F1F779
S11301E000C0000000E0F12C33C00E94CC019C014F
S11301F033272A30310551F4E1E0F0E0EC0FFD1F24
S1130200E00FF11D10820E94CC0124C0013061F482
S113021020353105E1F0E1E0F0E0EC0FFD1FE00FE7
S1130220F11D108211E016C02F2D30E0E1E0F0E066
S1130230EC0FFD1FE20FF31F80832F5F3F4FE1E0C0
S1130240F0E0EC0FFD1FE20FF31F1082F3940F5F39
S11302500A3058F2112351F0B7CF880F982F990F15
S1130260990F890F830F80532F5F02C021E080E034
S1130270E1E0F0E0EC0FFD1FE20FF11D30813111E0
S1130280ECCF9981923361F018F4913331F09CCF23
S1130290933349F0943351F097CF8093070194CF6F
S11302A08093060191CF809305018ECF8093040142
S11302B08BCF1F920F920FB60F9211242F938F930F
S11302C09F93EF93FF938091C0002091C6008C719F
S11302D0E0910C01EF5FEF7190910B01E91739F098
S11302E0E0930C01F0E0E15FFE4F208301C082E067
S11302F090910A01892B80930A01FF91EF919F91BC
S11303008F912F910F900FBE0F901F9018951F92F1
S11303100F920FB60F9211248F939F93EF93FF9335
S113032090910E0180910D01981769F0E0910D01F3
S1130330EF5FEF71E0930D01F0E0E15DFE4F80812E
S11303408093C60005C0E1ECF0E080818F7D80835E
S1130350FF91EF919F918F910F900FBE0F901F907F
S1130360189510920E0110920D0110920C0110922A
S11303700B01282F392F33231CF422E02093C000D3
S113038090789093C5008093C40088E98093C1005D
S113039086E08093C200089590910C0180910B0136
S11303A09817A9F090910B019F5F9F71E92FF0E0DE
S11303B0E15FFE4F208180910A0190930B0110921E
S11303C00A0190E0982F8827820F911D089580E0FC
S10B03D091E00895F894FFCFB9
S9030000FC
